:100000000EC015C014C013C012C011C010C00FC064
:100010000EC00DC00CC00BC00AC009C008C011241E
:100020001FBECFE5D1E0DEBFCDBFB1D0BBC0E8CFB2
:10003000C498BC9A80EA8A95F1F79FB7F894BC9867
:1000400085E18A95F1F7000086B39FBF9AE89A95FB
:10005000F1F700C08295817091E0892708959FB7DC
:10006000F894C498BC9A00C0882329F0BC9884E115
:100070008A95F1F704C084E18A95F1F7BC989FBF97
:1000800008950F931F93CF93DF93C0E0D0E0082F24
:1000900010E0C8010C2E02C0959587950A94E2F7EE
:1000A0008170DDDF2196C830D10599F7DF91CF91BE
:1000B0001F910F9108959FB7F894C498BC9A00C0FF
:1000C000BC9883E08A95F1F7000086B39FBF90E16A
:1000D0009A95F1F700C0829581700895EF92FF9292
:1000E0001F93CF93DF93C0E0D0E010E0EE24E394C1
:1000F000F12CE1DF882339F0C7010C2E01C0880FF5
:100100000A94EAF7182B2196C830D10591F7812F70
:10011000DF91CF911F91FF90EF900895CF93DF93E0
:1001200083EC99E00197F1F700C0000081DF8111B5
:1001300003C08FEF9FEF22C08CECA3DF84E4A1DF2C
:10014000C49ABC9A9FE32DE083E091502040804008
:10015000E1F700C00000BC986BDF882351F38CEC02
:1001600090DF8EEB8EDFBADFC82FD0E0B7DF9E01C5
:10017000382B213293E03907E0F6C901DF91CF91A6
:10018000089588E087BBC398C29878940895F9DFF2
:10019000C5DF803694401CF4C39AC29AF9CFC39845
:0801A000C298F6CFF894FFCFDE
:00000001FF
