:100000000EC015C014C013C012C011C010C00FC064
:100010000EC00DC00CC00BC00AC009C008C011241E
:100020001FBECFE5D1E0DEBFCDBFC4D0D6C0E8CF84
:10003000C398BB9A8FEB93E00197F1F700C00000E3
:100040009FB7F894BB98EAEAEA95F1F700C086B347
:100050009FBFEFEBF3E03197F1F700C0000083FBA7
:10006000882780F991E0892708959FB7F894C3986D
:10007000BB9A25E02A95F1F70000882329F0BB9868
:1000800080EA8A95F1F704C020EA2A95F1F7BB9837
:100090009FBF08950F931F93CF93DF93C0E0D0E0ED
:1000A000082F10E0C8010C2E02C0959587950A9480
:1000B000E2F78170DADF2196C830D10599F7DF9138
:1000C000CF911F910F9108959FB7F894C398BB9A51
:1000D00085E08A95F1F70000BB988AE18A95F1F7EF
:1000E00000C086B39FBF95E89A95F1F7000083FBA7
:1000F000882780F90895EF92FF921F93CF93DF93A3
:10010000C0E0D0E010E0EE24E394F12CDDDF8823A2
:1001100039F0C7010C2E01C0880F0A94EAF7182B9A
:100120002196C830D10591F7812FDF91CF911F9192
:10013000FF90EF900895CF93DF932FEF30E782E0A9
:10014000215030408040E1F700C0000071DF811194
:1001500002C08FEF27C08CEC9DDF84E49BDFC39A45
:10016000BB9A9FEF2EE934E2915020403040E1F7F6
:1001700000C00000BB985CDF882359F38CEC8ADF59
:100180008EEB88DFB8DFC82FD0E0B5DF9E01382BBB
:10019000C901977024E0969587952A95E1F78F34E9
:1001A0009105B8F6DF91CF91089588E187BBC39898
:1001B000C4980895FADFBFDF863418F4C39AC49A4E
:1001C00002C0C398C4982FEF89E698E1215080407F
:0E01D0009040E1F700C00000EECFF894FFCFA2
:00000001FF
