:100000000EC015C014C013C012C011C010C00FC064
:100010000EC00DC00CC00BC00AC009C008C011241E
:100020001FBECFE5D1E0DEBFCDBFBED006C1E8CF59
:10003000C498BC9A8FEB93E00197F1F700C00000E1
:100040009FB7F894BC98EAEAEA95F1F700C086B346
:100050009FBFEFEBF3E03197F1F700C0000082950E
:10006000817091E0892708959FB7F894C498BC9A4D
:1000700025E02A95F1F70000882329F0BC9880EA52
:100080008A95F1F704C020EA2A95F1F7BC989FBF42
:1000900008950F931F93CF93DF93C0E0D0E0082F14
:1000A00010E0C8010C2E02C0959587950A94E2F7DE
:1000B0008170DADF2196C830D10599F7DF91CF91B1
:1000C0001F910F9108959FB7F894C498BC9A85E04A
:1000D0008A95F1F70000BC988AE18A95F1F700C093
:1000E00086B39FBF95E89A95F1F7000082958170DD
:1000F0000895EF92FF921F93CF93DF93C0E0D0E07B
:1001000010E0EE24E394F12CDEDF882339F0C70100
:100110000C2E01C0880F0A94EAF7182B2196C830DC
:10012000D10591F7812FDF91CF911F91FF90EF9033
:100130000895CF93DF932FEF80E792E02150804026
:100140009040E1F700C0000073DF811103C08FEF22
:100150009FEF22C08CEC9DDF84E49BDFC49ABC9AA5
:100160002FEF8EE994E2215080409040E1F700C0EB
:100170000000BC985DDF882351F38CEC8ADF8EEBA6
:1001800088DFB7DFC82FD0E0B4DF9E01382B213ED7
:1001900084E03807E0F6C901DF91CF9108958CE043
:1001A00087BBC398C2980895FADFC3DF8F3F2FEF54
:1001B000920719F483E090E01EC020E030E0281799
:1001C000390789F1C39AC29A4FEF52E567E041506F
:1001D00050406040E1F700C00000C398C2984FEF64
:1001E00052E567E0415050406040E1F700C0000038
:1001F0002F5F3F4FE4CFC39AC29A2FEF30E742E020
:10020000215030404040E1F700C00000C398C29840
:100210005FEF60E722E0515060402040E1F700C00E
:100220000000019741F73FEF49E658E13150404067
:0E0230005040E1F700C00000B8CFF894FFCFB7
:00000001FF
