:100000000EC015C014C013C012C011C010C00FC064
:100010000EC00DC00CC00BC00AC009C008C011241E
:100020001FBECFE5D1E0DEBFCDBFBBD0D2C0E8CF91
:10003000C498BC9A8FEB93E00197F1F700C00000E1
:100040009FB7F894BC98EAEAEA95F1F700C086B346
:100050009FBFEFEBF3E03197F1F700C0000082950E
:10006000817091E0892708959FB7F894C498BC9A4D
:1000700025E02A95F1F70000882329F0BC9880EA52
:100080008A95F1F704C020EA2A95F1F7BC989FBF42
:1000900008950F931F93CF93DF93C0E0D0E0082F14
:1000A00010E0C8010C2E02C0959587950A94E2F7DE
:1000B0008170DADF2196C830D10599F7DF91CF91B1
:1000C0001F910F9108959FB7F894C498BC9A85E04A
:1000D0008A95F1F70000BC988AE18A95F1F700C093
:1000E00086B39FBF95E89A95F1F7000082958170DD
:1000F0000895EF92FF921F93CF93DF93C0E0D0E07B
:1001000010E0EE24E394F12CDEDF882339F0C70100
:100110000C2E01C0880F0A94EAF7182B2196C830DC
:10012000D10591F7812FDF91CF911F91FF90EF9033
:100130000895CF93DF938FE19EE40197F1F700C01C
:10014000000076DF811103C08FEF9FEF22C08CEC9F
:10015000A0DF84E49EDFC49ABC9A9FEF23ED80E386
:10016000915020408040E1F700C00000BC9860DF63
:10017000882351F38CEC8DDF8EEB8BDFBADFC82F39
:10018000D0E0B7DF9E01382B213E94E03907E0F63E
:10019000C901DF91CF9108958CE087BBC398C298C5
:1001A0000895FADFC39AC29A2FEF89E698E12150A9
:1001B00080409040E1F700C00000C398C2982FEF44
:1001C00089E698E1215080409040E1F700C00000AE
:0601D000E9CFF894FFCF17
:00000001FF
